{
  "_format": "hh-sol-artifact-1",
  "contractName": "TransferGateTest",
  "sourceName": "contracts/test/TransferGateTest.sol",
  "abi": [
    {
      "inputs": [
        {
          "internalType": "address",
          "name": "",
          "type": "address"
        },
        {
          "internalType": "address",
          "name": "",
          "type": "address"
        },
        {
          "internalType": "address",
          "name": "",
          "type": "address"
        },
        {
          "internalType": "uint256",
          "name": "",
          "type": "uint256"
        }
      ],
      "name": "handleTransfer",
      "outputs": [
        {
          "internalType": "uint256",
          "name": "burn",
          "type": "uint256"
        },
        {
          "components": [
            {
              "internalType": "address",
              "name": "destination",
              "type": "address"
            },
            {
              "internalType": "uint256",
              "name": "amount",
              "type": "uint256"
            }
          ],
          "internalType": "struct TransferTarget[]",
          "name": "targets",
          "type": "tuple[]"
        }
      ],
      "stateMutability": "view",
      "type": "function"
    },
    {
      "inputs": [
        {
          "internalType": "uint256",
          "name": "_burnAmount",
          "type": "uint256"
        },
        {
          "internalType": "address",
          "name": "_addr1",
          "type": "address"
        },
        {
          "internalType": "uint256",
          "name": "_addr1Amount",
          "type": "uint256"
        },
        {
          "internalType": "address",
          "name": "_addr2",
          "type": "address"
        },
        {
          "internalType": "uint256",
          "name": "_addr2Amount",
          "type": "uint256"
        }
      ],
      "name": "setParams",
      "outputs": [],
      "stateMutability": "nonpayable",
      "type": "function"
    }
  ],
  "bytecode": "0x608060405234801561001057600080fd5b50610612806100206000396000f3fe608060405234801561001057600080fd5b50600436106100365760003560e01c806395c47d061461003b578063a5c400d41461006c575b600080fd5b6100556004803603810190610050919061035d565b610088565b604051610063929190610509565b60405180910390f35b610086600480360381019061008191906103c0565b610266565b005b600060606002549150600080600454116100a35760006100a6565b60015b6000600354116100b75760006100ba565b60015b0190508060ff1667ffffffffffffffff811180156100d757600080fd5b5060405190808252806020026020018201604052801561011157816020015b6100fe610303565b8152602001906001900390816100f65790505b509150600060035411156101b75760008054906101000a900473ffffffffffffffffffffffffffffffffffffffff1682826001900392508260ff168151811061015657fe5b60200260200101516000019073ffffffffffffffffffffffffffffffffffffffff16908173ffffffffffffffffffffffffffffffffffffffff1681525050600354828260ff16815181106101a657fe5b602002602001015160200181815250505b6000600454111561025c57600160009054906101000a900473ffffffffffffffffffffffffffffffffffffffff1682826001900392508260ff16815181106101fb57fe5b60200260200101516000019073ffffffffffffffffffffffffffffffffffffffff16908173ffffffffffffffffffffffffffffffffffffffff1681525050600454828260ff168151811061024b57fe5b602002602001015160200181815250505b5094509492505050565b836000806101000a81548173ffffffffffffffffffffffffffffffffffffffff021916908373ffffffffffffffffffffffffffffffffffffffff16021790555081600160006101000a81548173ffffffffffffffffffffffffffffffffffffffff021916908373ffffffffffffffffffffffffffffffffffffffff1602179055508460028190555082600381905550806004819055505050505050565b6040518060400160405280600073ffffffffffffffffffffffffffffffffffffffff168152602001600081525090565b600081359050610342816105ae565b92915050565b600081359050610357816105c5565b92915050565b6000806000806080858703121561037357600080fd5b600061038187828801610333565b945050602061039287828801610333565b93505060406103a387828801610333565b92505060606103b487828801610348565b91505092959194509250565b600080600080600060a086880312156103d857600080fd5b60006103e688828901610348565b95505060206103f788828901610333565b945050604061040888828901610348565b935050606061041988828901610333565b925050608061042a88828901610348565b9150509295509295909350565b600061044383836104bc565b60408301905092915050565b61045881610572565b82525050565b600061046982610549565b6104738185610561565b935061047e83610539565b8060005b838110156104af5781516104968882610437565b97506104a183610554565b925050600181019050610482565b5085935050505092915050565b6040820160008201516104d2600085018261044f565b5060208201516104e560208501826104eb565b50505050565b6104f4816105a4565b82525050565b610503816105a4565b82525050565b600060408201905061051e60008301856104fa565b8181036020830152610530818461045e565b90509392505050565b6000819050602082019050919050565b600081519050919050565b6000602082019050919050565b600082825260208201905092915050565b600061057d82610584565b9050919050565b600073ffffffffffffffffffffffffffffffffffffffff82169050919050565b6000819050919050565b6105b781610572565b81146105c257600080fd5b50565b6105ce816105a4565b81146105d957600080fd5b5056fea26469706673582212209a2ed266bec93b7972a1687db4e4c7224d5510a6056e34ea1be5e9c2ae5ec10b64736f6c63430007040033",
  "linkReferences": {},
  "deployedLinkReferences": {}
}