{
  "_format": "hh-sol-artifact-1",
  "contractName": "KoraDistribution",
  "sourceName": "contracts/KoraDistribution.sol",
  "abi": [
    {
      "inputs": [
        {
          "internalType": "contract Kora",
          "name": "_kora",
          "type": "address"
        },
        {
          "internalType": "contract IUniswapV2Router02",
          "name": "_uniswapV2Router",
          "type": "address"
        },
        {
          "internalType": "contract KETH",
          "name": "_keth",
          "type": "address"
        }
      ],
      "stateMutability": "nonpayable",
      "type": "constructor"
    },
    {
      "anonymous": false,
      "inputs": [
        {
          "indexed": true,
          "internalType": "address",
          "name": "previousOwner",
          "type": "address"
        },
        {
          "indexed": true,
          "internalType": "address",
          "name": "newOwner",
          "type": "address"
        }
      ],
      "name": "OwnershipTransferred",
      "type": "event"
    },
    {
      "inputs": [],
      "name": "activate",
      "outputs": [],
      "stateMutability": "nonpayable",
      "type": "function"
    },
    {
      "inputs": [],
      "name": "allowRefunds",
      "outputs": [],
      "stateMutability": "nonpayable",
      "type": "function"
    },
    {
      "inputs": [],
      "name": "claimOwnership",
      "outputs": [],
      "stateMutability": "nonpayable",
      "type": "function"
    },
    {
      "inputs": [],
      "name": "claimRefund",
      "outputs": [],
      "stateMutability": "nonpayable",
      "type": "function"
    },
    {
      "inputs": [
        {
          "internalType": "address",
          "name": "",
          "type": "address"
        }
      ],
      "name": "contribution",
      "outputs": [
        {
          "internalType": "uint256",
          "name": "",
          "type": "uint256"
        }
      ],
      "stateMutability": "view",
      "type": "function"
    },
    {
      "inputs": [],
      "name": "contributorDistributionIndex",
      "outputs": [
        {
          "internalType": "uint256",
          "name": "",
          "type": "uint256"
        }
      ],
      "stateMutability": "view",
      "type": "function"
    },
    {
      "inputs": [
        {
          "internalType": "uint256",
          "name": "",
          "type": "uint256"
        }
      ],
      "name": "contributors",
      "outputs": [
        {
          "internalType": "address",
          "name": "",
          "type": "address"
        }
      ],
      "stateMutability": "view",
      "type": "function"
    },
    {
      "inputs": [],
      "name": "contributorsCount",
      "outputs": [
        {
          "internalType": "uint256",
          "name": "",
          "type": "uint256"
        }
      ],
      "stateMutability": "view",
      "type": "function"
    },
    {
      "inputs": [],
      "name": "deactivate",
      "outputs": [],
      "stateMutability": "nonpayable",
      "type": "function"
    },
    {
      "inputs": [
        {
          "internalType": "uint256",
          "name": "_iterations",
          "type": "uint256"
        }
      ],
      "name": "distribute",
      "outputs": [],
      "stateMutability": "nonpayable",
      "type": "function"
    },
    {
      "inputs": [],
      "name": "isActive",
      "outputs": [
        {
          "internalType": "bool",
          "name": "",
          "type": "bool"
        }
      ],
      "stateMutability": "view",
      "type": "function"
    },
    {
      "inputs": [],
      "name": "isComplete",
      "outputs": [
        {
          "internalType": "bool",
          "name": "",
          "type": "bool"
        }
      ],
      "stateMutability": "view",
      "type": "function"
    },
    {
      "inputs": [],
      "name": "kora",
      "outputs": [
        {
          "internalType": "contract Kora",
          "name": "",
          "type": "address"
        }
      ],
      "stateMutability": "view",
      "type": "function"
    },
    {
      "inputs": [],
      "name": "owner",
      "outputs": [
        {
          "internalType": "address",
          "name": "",
          "type": "address"
        }
      ],
      "stateMutability": "view",
      "type": "function"
    },
    {
      "inputs": [
        {
          "internalType": "address",
          "name": "newOwner",
          "type": "address"
        }
      ],
      "name": "transferOwnership",
      "outputs": [],
      "stateMutability": "nonpayable",
      "type": "function"
    },
    {
      "stateMutability": "payable",
      "type": "receive"
    }
  ],
  "bytecode": "0x610100604052336000806101000a81548173ffffffffffffffffffffffffffffffffffffffff021916908373ffffffffffffffffffffffffffffffffffffffff1602179055503480156200005257600080fd5b50604051620027eb380380620027eb833981810160405260608110156200007857600080fd5b810190808051906020019092919080519060200190929190805190602001909291905050508173ffffffffffffffffffffffffffffffffffffffff1663ad5c46486040518163ffffffff1660e01b815260040160206040518083038186803b158015620000e457600080fd5b505afa158015620000f9573d6000803e3d6000fd5b505050506040513d60208110156200011057600080fd5b810190808051906020019092919050505073ffffffffffffffffffffffffffffffffffffffff168173ffffffffffffffffffffffffffffffffffffffff1663996c6cc36040518163ffffffff1660e01b815260040160206040518083038186803b1580156200017e57600080fd5b505afa15801562000193573d6000803e3d6000fd5b505050506040513d6020811015620001aa57600080fd5b810190808051906020019092919050505073ffffffffffffffffffffffffffffffffffffffff1614620001dc57600080fd5b8273ffffffffffffffffffffffffffffffffffffffff1660808173ffffffffffffffffffffffffffffffffffffffff1660601b815250508173ffffffffffffffffffffffffffffffffffffffff1660c08173ffffffffffffffffffffffffffffffffffffffff1660601b815250508073ffffffffffffffffffffffffffffffffffffffff1660a08173ffffffffffffffffffffffffffffffffffffffff1660601b815250508173ffffffffffffffffffffffffffffffffffffffff1663c45a01556040518163ffffffff1660e01b815260040160206040518083038186803b158015620002c857600080fd5b505afa158015620002dd573d6000803e3d6000fd5b505050506040513d6020811015620002f457600080fd5b810190808051906020019092919050505073ffffffffffffffffffffffffffffffffffffffff1660e08173ffffffffffffffffffffffffffffffffffffffff1660601b8152505050505060805160601c60a05160601c60c05160601c60e05160601c612411620003da600039806107d6528061098d525080610b2c5280610c395280611e6a52508061081252806109c95280610af05280610d0a5280610dc652806111775280611cd95280611ea652508061064f52806106f0528061083352806109ea5280610bfd5280610eeb5280611bc65280611d9f5280611ec752506124116000f3fe6080604052600436106100ec5760003560e01c80637569b3d71161008a578063b2fa1c9e11610059578063b2fa1c9e14610480578063b5545a3c146104ad578063e2dc4310146104c4578063f2fde38b146105295761027a565b80637569b3d7146103ae5780638da5cb5b146103d95780638f917d601461041a57806391c05b0b146104455761027a565b8063430ebfc5116100c6578063430ebfc5146103285780634e71e0c81461036957806351b42b001461038057806359c656df146103975761027a565b80630f15f4c01461027f57806322f3e2d4146102965780633cb5d100146102c35761027a565b3661027a57600160149054906101000a900460ff16610173576040517f08c379a00000000000000000000000000000000000000000000000000000000081526004018080602001828103825260178152602001807f446973747269627574696f6e206e6f742061637469766500000000000000000081525060200191505060405180910390fd5b6000341161018057600080fd5b6000600260003373ffffffffffffffffffffffffffffffffffffffff1673ffffffffffffffffffffffffffffffffffffffff1681526020019081526020016000205490506000811415610231576003339080600181540180825580915050600190039060005260206000200160009091909190916101000a81548173ffffffffffffffffffffffffffffffffffffffff021916908373ffffffffffffffffffffffffffffffffffffffff1602179055505b348101600260003373ffffffffffffffffffffffffffffffffffffffff1673ffffffffffffffffffffffffffffffffffffffff1681526020019081526020016000208190555050005b600080fd5b34801561028b57600080fd5b5061029461057a565b005b3480156102a257600080fd5b506102ab610e97565b60405180821515815260200191505060405180910390f35b3480156102cf57600080fd5b506102fc600480360360208110156102e657600080fd5b8101908080359060200190929190505050610eaa565b604051808273ffffffffffffffffffffffffffffffffffffffff16815260200191505060405180910390f35b34801561033457600080fd5b5061033d610ee9565b604051808273ffffffffffffffffffffffffffffffffffffffff16815260200191505060405180910390f35b34801561037557600080fd5b5061037e610f0d565b005b34801561038c57600080fd5b50610395611065565b005b3480156103a357600080fd5b506103ac6112cc565b005b3480156103ba57600080fd5b506103c36113f6565b6040518082815260200191505060405180910390f35b3480156103e557600080fd5b506103ee611403565b604051808273ffffffffffffffffffffffffffffffffffffffff16815260200191505060405180910390f35b34801561042657600080fd5b5061042f611427565b6040518082815260200191505060405180910390f35b34801561045157600080fd5b5061047e6004803603602081101561046857600080fd5b810190808035906020019092919050505061142d565b005b34801561048c57600080fd5b506104956117f0565b60405180821515815260200191505060405180910390f35b3480156104b957600080fd5b506104c2611844565b005b3480156104d057600080fd5b50610513600480360360208110156104e757600080fd5b81019080803573ffffffffffffffffffffffffffffffffffffffff169060200190929190505050611aa5565b6040518082815260200191505060405180910390f35b34801561053557600080fd5b506105786004803603602081101561054c57600080fd5b81019080803573ffffffffffffffffffffffffffffffffffffffff169060200190929190505050611abd565b005b60008054906101000a900473ffffffffffffffffffffffffffffffffffffffff1673ffffffffffffffffffffffffffffffffffffffff163373ffffffffffffffffffffffffffffffffffffffff161461063b576040517f08c379a000000000000000000000000000000000000000000000000000000000815260040180806020018281038252600a8152602001807f4f776e6572206f6e6c790000000000000000000000000000000000000000000081525060200191505060405180910390fd5b60006003805490501461064d57600080fd5b7f000000000000000000000000000000000000000000000000000000000000000073ffffffffffffffffffffffffffffffffffffffff166318160ddd6040518163ffffffff1660e01b815260040160206040518083038186803b1580156106b357600080fd5b505afa1580156106c7573d6000803e3d6000fd5b505050506040513d60208110156106dd57600080fd5b81019080805190602001909291905050507f000000000000000000000000000000000000000000000000000000000000000073ffffffffffffffffffffffffffffffffffffffff166370a08231306040518263ffffffff1660e01b8152600401808273ffffffffffffffffffffffffffffffffffffffff16815260200191505060206040518083038186803b15801561077557600080fd5b505afa158015610789573d6000803e3d6000fd5b505050506040513d602081101561079f57600080fd5b8101908080519060200190929190505050146107ba57600080fd5b60018060146101000a81548160ff0219169083151502179055507f000000000000000000000000000000000000000000000000000000000000000073ffffffffffffffffffffffffffffffffffffffff1663e6a439057f00000000000000000000000000000000000000000000000000000000000000007f00000000000000000000000000000000000000000000000000000000000000006040518363ffffffff1660e01b8152600401808373ffffffffffffffffffffffffffffffffffffffff1681526020018273ffffffffffffffffffffffffffffffffffffffff1681526020019250505060206040518083038186803b1580156108b957600080fd5b505afa1580156108cd573d6000803e3d6000fd5b505050506040513d60208110156108e357600080fd5b8101908080519060200190929190505050600760006101000a81548173ffffffffffffffffffffffffffffffffffffffff021916908373ffffffffffffffffffffffffffffffffffffffff160217905550600073ffffffffffffffffffffffffffffffffffffffff16600760009054906101000a900473ffffffffffffffffffffffffffffffffffffffff1673ffffffffffffffffffffffffffffffffffffffff161415610aee577f000000000000000000000000000000000000000000000000000000000000000073ffffffffffffffffffffffffffffffffffffffff1663c9c653967f00000000000000000000000000000000000000000000000000000000000000007f00000000000000000000000000000000000000000000000000000000000000006040518363ffffffff1660e01b8152600401808373ffffffffffffffffffffffffffffffffffffffff1681526020018273ffffffffffffffffffffffffffffffffffffffff16815260200192505050602060405180830381600087803b158015610a7257600080fd5b505af1158015610a86573d6000803e3d6000fd5b505050506040513d6020811015610a9c57600080fd5b8101908080519060200190929190505050600760006101000a81548173ffffffffffffffffffffffffffffffffffffffff021916908373ffffffffffffffffffffffffffffffffffffffff1602179055505b7f000000000000000000000000000000000000000000000000000000000000000073ffffffffffffffffffffffffffffffffffffffff1663095ea7b37f00000000000000000000000000000000000000000000000000000000000000007fffffffffffffffffffffffffffffffffffffffffffffffffffffffffffffffff6040518363ffffffff1660e01b8152600401808373ffffffffffffffffffffffffffffffffffffffff16815260200182815260200192505050602060405180830381600087803b158015610bbf57600080fd5b505af1158015610bd3573d6000803e3d6000fd5b505050506040513d6020811015610be957600080fd5b8101908080519060200190929190505050507f000000000000000000000000000000000000000000000000000000000000000073ffffffffffffffffffffffffffffffffffffffff1663095ea7b37f00000000000000000000000000000000000000000000000000000000000000007fffffffffffffffffffffffffffffffffffffffffffffffffffffffffffffffff6040518363ffffffff1660e01b8152600401808373ffffffffffffffffffffffffffffffffffffffff16815260200182815260200192505050602060405180830381600087803b158015610ccc57600080fd5b505af1158015610ce0573d6000803e3d6000fd5b505050506040513d6020811015610cf657600080fd5b8101908080519060200190929190505050507f000000000000000000000000000000000000000000000000000000000000000073ffffffffffffffffffffffffffffffffffffffff1663996c6cc36040518163ffffffff1660e01b815260040160206040518083038186803b158015610d6e57600080fd5b505afa158015610d82573d6000803e3d6000fd5b505050506040513d6020811015610d9857600080fd5b810190808051906020019092919050505073ffffffffffffffffffffffffffffffffffffffff1663095ea7b37f00000000000000000000000000000000000000000000000000000000000000007fffffffffffffffffffffffffffffffffffffffffffffffffffffffffffffffff6040518363ffffffff1660e01b8152600401808373ffffffffffffffffffffffffffffffffffffffff16815260200182815260200192505050602060405180830381600087803b158015610e5957600080fd5b505af1158015610e6d573d6000803e3d6000fd5b505050506040513d6020811015610e8357600080fd5b810190808051906020019092919050505050565b600160149054906101000a900460ff1681565b60038181548110610eba57600080fd5b906000526020600020016000915054906101000a900473ffffffffffffffffffffffffffffffffffffffff1681565b7f000000000000000000000000000000000000000000000000000000000000000081565b3373ffffffffffffffffffffffffffffffffffffffff16600160009054906101000a900473ffffffffffffffffffffffffffffffffffffffff1673ffffffffffffffffffffffffffffffffffffffff1614610f6757600080fd5b6000600160006101000a81548173ffffffffffffffffffffffffffffffffffffffff021916908373ffffffffffffffffffffffffffffffffffffffff1602179055503373ffffffffffffffffffffffffffffffffffffffff1660008054906101000a900473ffffffffffffffffffffffffffffffffffffffff1673ffffffffffffffffffffffffffffffffffffffff167f8be0079c531659141344cd1fd0a4f28419497f9722a3daafe3b4186f6b6457e060405160405180910390a3336000806101000a81548173ffffffffffffffffffffffffffffffffffffffff021916908373ffffffffffffffffffffffffffffffffffffffff160217905550565b60008054906101000a900473ffffffffffffffffffffffffffffffffffffffff1673ffffffffffffffffffffffffffffffffffffffff163373ffffffffffffffffffffffffffffffffffffffff1614611126576040517f08c379a000000000000000000000000000000000000000000000000000000000815260040180806020018281038252600a8152602001807f4f776e6572206f6e6c790000000000000000000000000000000000000000000081525060200191505060405180910390fd5b600160149054906101000a900460ff1661113f57600080fd5b6000600160146101000a81548160ff0219169083151502179055506000479050600081141561116e57506112ca565b806005819055507f000000000000000000000000000000000000000000000000000000000000000073ffffffffffffffffffffffffffffffffffffffff1663d0e30db0826040518263ffffffff1660e01b81526004016000604051808303818588803b1580156111dd57600080fd5b505af11580156111f1573d6000803e3d6000fd5b50505050506111fe611bc2565b600760009054906101000a900473ffffffffffffffffffffffffffffffffffffffff1673ffffffffffffffffffffffffffffffffffffffff166370a08231306040518263ffffffff1660e01b8152600401808273ffffffffffffffffffffffffffffffffffffffff16815260200191505060206040518083038186803b15801561128757600080fd5b505afa15801561129b573d6000803e3d6000fd5b505050506040513d60208110156112b157600080fd5b8101908080519060200190929190505050600681905550505b565b60008054906101000a900473ffffffffffffffffffffffffffffffffffffffff1673ffffffffffffffffffffffffffffffffffffffff163373ffffffffffffffffffffffffffffffffffffffff161461138d576040517f08c379a000000000000000000000000000000000000000000000000000000000815260040180806020018281038252600a8152602001807f4f776e6572206f6e6c790000000000000000000000000000000000000000000081525060200191505060405180910390fd5b600160159054906101000a900460ff161580156113b65750600160149054906101000a900460ff165b6113bf57600080fd5b6000600160146101000a81548160ff02191690831515021790555060018060156101000a81548160ff021916908315150217905550565b6000600380549050905090565b60008054906101000a900473ffffffffffffffffffffffffffffffffffffffff1681565b60045481565b600060038054905090506000600454905060008311801561145b5750600160149054906101000a900460ff16155b80156114745750600160159054906101000a900460ff16155b80156114805750600082115b6114f2576040517f08c379a00000000000000000000000000000000000000000000000000000000081526004018080602001828103825260158152602001807f4e6f7468696e6720746f2064697374726962757465000000000000000000000081525060200191505060405180910390fd5b818110611567576040517f08c379a00000000000000000000000000000000000000000000000000000000081526004018080602001828103825260158152602001807f446973747269627574696f6e20636f6d706c657465000000000000000000000081525060200191505060405180910390fd5b60006005549050600060065490506000600760009054906101000a900473ffffffffffffffffffffffffffffffffffffffff1673ffffffffffffffffffffffffffffffffffffffff166370a08231306040518263ffffffff1660e01b8152600401808273ffffffffffffffffffffffffffffffffffffffff16815260200191505060206040518083038186803b15801561160057600080fd5b505afa158015611614573d6000803e3d6000fd5b505050506040513d602081101561162a57600080fd5b810190808051906020019092919050505090505b6000868060019003975011801561165457508484105b156117e15760006003858060010196508154811061166e57fe5b9060005260206000200160009054906101000a900473ffffffffffffffffffffffffffffffffffffffff1690506000846116f085600260008673ffffffffffffffffffffffffffffffffffffffff1673ffffffffffffffffffffffffffffffffffffffff1681526020019081526020016000205461208590919063ffffffff16565b816116f757fe5b04905082811115611706578290505b8083039250600760009054906101000a900473ffffffffffffffffffffffffffffffffffffffff1673ffffffffffffffffffffffffffffffffffffffff1663a9059cbb83836040518363ffffffff1660e01b8152600401808373ffffffffffffffffffffffffffffffffffffffff16815260200182815260200192505050602060405180830381600087803b15801561179e57600080fd5b505af11580156117b2573d6000803e3d6000fd5b505050506040513d60208110156117c857600080fd5b810190808051906020019092919050505050505061163e565b83600481905550505050505050565b60006003805490506004541480156118155750600160149054906101000a900460ff16155b801561182e5750600160159054906101000a900460ff16155b801561183f57506000600380549050115b905090565b600160159054906101000a900460ff166118c6576040517f08c379a00000000000000000000000000000000000000000000000000000000081526004018080602001828103825260118152602001807f45766572797468696e6727732066696e6500000000000000000000000000000081525060200191505060405180910390fd5b6000600260003373ffffffffffffffffffffffffffffffffffffffff1673ffffffffffffffffffffffffffffffffffffffff16815260200190815260200160002054905060008111611980576040517f08c379a000000000000000000000000000000000000000000000000000000000815260040180806020018281038252600f8152602001807f416c726561647920636c61696d6564000000000000000000000000000000000081525060200191505060405180910390fd5b6000600260003373ffffffffffffffffffffffffffffffffffffffff1673ffffffffffffffffffffffffffffffffffffffff1681526020019081526020016000208190555060003373ffffffffffffffffffffffffffffffffffffffff168260405180600001905060006040518083038185875af1925050503d8060008114611a25576040519150601f19603f3d011682016040523d82523d6000602084013e611a2a565b606091505b5050905080611aa1576040517f08c379a000000000000000000000000000000000000000000000000000000000815260040180806020018281038252600f8152602001807f5472616e73666572206661696c6564000000000000000000000000000000000081525060200191505060405180910390fd5b5050565b60026020528060005260406000206000915090505481565b60008054906101000a900473ffffffffffffffffffffffffffffffffffffffff1673ffffffffffffffffffffffffffffffffffffffff163373ffffffffffffffffffffffffffffffffffffffff1614611b7e576040517f08c379a000000000000000000000000000000000000000000000000000000000815260040180806020018281038252600a8152602001807f4f776e6572206f6e6c790000000000000000000000000000000000000000000081525060200191505060405180910390fd5b80600160006101000a81548173ffffffffffffffffffffffffffffffffffffffff021916908373ffffffffffffffffffffffffffffffffffffffff16021790555050565b60007f000000000000000000000000000000000000000000000000000000000000000073ffffffffffffffffffffffffffffffffffffffff1663b49753436040518163ffffffff1660e01b815260040160206040518083038186803b158015611c2a57600080fd5b505afa158015611c3e573d6000803e3d6000fd5b505050506040513d6020811015611c5457600080fd5b810190808051906020019092919050505090508073ffffffffffffffffffffffffffffffffffffffff16638327eb8760016040518263ffffffff1660e01b8152600401808215158152602001915050600060405180830381600087803b158015611cbd57600080fd5b505af1158015611cd1573d6000803e3d6000fd5b5050505060007f000000000000000000000000000000000000000000000000000000000000000073ffffffffffffffffffffffffffffffffffffffff166370a08231306040518263ffffffff1660e01b8152600401808273ffffffffffffffffffffffffffffffffffffffff16815260200191505060206040518083038186803b158015611d5e57600080fd5b505afa158015611d72573d6000803e3d6000fd5b505050506040513d6020811015611d8857600080fd5b8101908080519060200190929190505050905060007f000000000000000000000000000000000000000000000000000000000000000073ffffffffffffffffffffffffffffffffffffffff166318160ddd6040518163ffffffff1660e01b815260040160206040518083038186803b158015611e0357600080fd5b505afa158015611e17573d6000803e3d6000fd5b505050506040513d6020811015611e2d57600080fd5b81019080805190602001909291905050509050611e636040518060600160405280603181526020016123ab60319139838361210b565b60008060007f000000000000000000000000000000000000000000000000000000000000000073ffffffffffffffffffffffffffffffffffffffff1663e8e337007f00000000000000000000000000000000000000000000000000000000000000007f0000000000000000000000000000000000000000000000000000000000000000888860008030426040518963ffffffff1660e01b8152600401808973ffffffffffffffffffffffffffffffffffffffff1681526020018873ffffffffffffffffffffffffffffffffffffffff1681526020018781526020018681526020018581526020018481526020018373ffffffffffffffffffffffffffffffffffffffff16815260200182815260200198505050505050505050606060405180830381600087803b158015611f9657600080fd5b505af1158015611faa573d6000803e3d6000fd5b505050506040513d6060811015611fc057600080fd5b8101908080519060200190929190805190602001909291908051906020019092919050505092509250925061200f6040518060600160405280602c815260200161235e602c913984848461221b565b8573ffffffffffffffffffffffffffffffffffffffff16638327eb8760006040518263ffffffff1660e01b8152600401808215158152602001915050600060405180830381600087803b15801561206557600080fd5b505af1158015612079573d6000803e3d6000fd5b50505050505050505050565b6000808314156120985760009050612105565b60008284029050828482816120a957fe5b0414612100576040517f08c379a000000000000000000000000000000000000000000000000000000000815260040180806020018281038252602181526020018061238a6021913960400191505060405180910390fd5b809150505b92915050565b6122168383836040516024018080602001848152602001838152602001828103825285818151815260200191508051906020019080838360005b83811015612160578082015181840152602081019050612145565b50505050905090810190601f16801561218d5780820380516001836020036101000a031916815260200191505b509450505050506040516020818303038152906040527f969cdd03000000000000000000000000000000000000000000000000000000007bffffffffffffffffffffffffffffffffffffffffffffffffffffffff19166020820180517bffffffffffffffffffffffffffffffffffffffffffffffffffffffff8381831617835250505050612334565b505050565b61232e848484846040516024018080602001858152602001848152602001838152602001828103825286818151815260200191508051906020019080838360005b8381101561227757808201518184015260208101905061225c565b50505050905090810190601f1680156122a45780820380516001836020036101000a031916815260200191505b50955050505050506040516020818303038152906040527f08ee5666000000000000000000000000000000000000000000000000000000007bffffffffffffffffffffffffffffffffffffffffffffffffffffffff19166020820180517bffffffffffffffffffffffffffffffffffffffffffffffffffffffff8381831617835250505050612334565b50505050565b60008151905060006a636f6e736f6c652e6c6f679050602083016000808483855afa505050505056fe496e697469616c204b455448203d2025732c204b4f5241203d2025732c204c6971756964697479203d202573536166654d6174683a206d756c7469706c69636174696f6e206f766572666c6f77416464696e6720696e697469616c206c69717569646974792077697468202573204b45544820616e64202573204b4f5241a26469706673582212206561995aa9cc515a53807eb798f6b7c49bff09e55db4f1a0e29ef66b05ba24cc64736f6c63430007040033",
  "linkReferences": {},
  "deployedLinkReferences": {}
}