{
  "_format": "hh-sol-artifact-1",
  "contractName": "KoraTransferGate",
  "sourceName": "contracts/KoraTransferGate.sol",
  "abi": [
    {
      "inputs": [
        {
          "internalType": "contract Kora",
          "name": "_kora",
          "type": "address"
        },
        {
          "internalType": "contract IUniswapV2Router02",
          "name": "_uniswapV2Router",
          "type": "address"
        }
      ],
      "stateMutability": "nonpayable",
      "type": "constructor"
    },
    {
      "anonymous": false,
      "inputs": [
        {
          "indexed": true,
          "internalType": "address",
          "name": "previousOwner",
          "type": "address"
        },
        {
          "indexed": true,
          "internalType": "address",
          "name": "newOwner",
          "type": "address"
        }
      ],
      "name": "OwnershipTransferred",
      "type": "event"
    },
    {
      "inputs": [
        {
          "internalType": "contract IERC20",
          "name": "token",
          "type": "address"
        }
      ],
      "name": "allowPool",
      "outputs": [],
      "stateMutability": "nonpayable",
      "type": "function"
    },
    {
      "inputs": [
        {
          "internalType": "uint256",
          "name": "",
          "type": "uint256"
        }
      ],
      "name": "allowedPoolTokens",
      "outputs": [
        {
          "internalType": "contract IERC20",
          "name": "",
          "type": "address"
        }
      ],
      "stateMutability": "view",
      "type": "function"
    },
    {
      "inputs": [],
      "name": "allowedPoolTokensCount",
      "outputs": [
        {
          "internalType": "uint256",
          "name": "",
          "type": "uint256"
        }
      ],
      "stateMutability": "view",
      "type": "function"
    },
    {
      "inputs": [],
      "name": "claimOwnership",
      "outputs": [],
      "stateMutability": "nonpayable",
      "type": "function"
    },
    {
      "inputs": [
        {
          "internalType": "address",
          "name": "",
          "type": "address"
        }
      ],
      "name": "freeParticipant",
      "outputs": [
        {
          "internalType": "bool",
          "name": "",
          "type": "bool"
        }
      ],
      "stateMutability": "view",
      "type": "function"
    },
    {
      "inputs": [
        {
          "internalType": "address",
          "name": "",
          "type": "address"
        },
        {
          "internalType": "address",
          "name": "from",
          "type": "address"
        },
        {
          "internalType": "address",
          "name": "to",
          "type": "address"
        },
        {
          "internalType": "uint256",
          "name": "amount",
          "type": "uint256"
        }
      ],
      "name": "handleTransfer",
      "outputs": [
        {
          "internalType": "uint256",
          "name": "burn",
          "type": "uint256"
        },
        {
          "components": [
            {
              "internalType": "address",
              "name": "destination",
              "type": "address"
            },
            {
              "internalType": "uint256",
              "name": "amount",
              "type": "uint256"
            }
          ],
          "internalType": "struct TransferTarget[]",
          "name": "targets",
          "type": "tuple[]"
        }
      ],
      "stateMutability": "nonpayable",
      "type": "function"
    },
    {
      "inputs": [],
      "name": "owner",
      "outputs": [
        {
          "internalType": "address",
          "name": "",
          "type": "address"
        }
      ],
      "stateMutability": "view",
      "type": "function"
    },
    {
      "inputs": [],
      "name": "parameters",
      "outputs": [
        {
          "internalType": "address",
          "name": "dev",
          "type": "address"
        },
        {
          "internalType": "uint16",
          "name": "poolRate",
          "type": "uint16"
        },
        {
          "internalType": "uint16",
          "name": "burnRate",
          "type": "uint16"
        },
        {
          "internalType": "uint16",
          "name": "devRate",
          "type": "uint16"
        }
      ],
      "stateMutability": "view",
      "type": "function"
    },
    {
      "inputs": [
        {
          "internalType": "contract IERC20",
          "name": "token",
          "type": "address"
        },
        {
          "internalType": "uint256",
          "name": "tokenAmount",
          "type": "uint256"
        },
        {
          "internalType": "uint256",
          "name": "koraAmount",
          "type": "uint256"
        },
        {
          "internalType": "uint256",
          "name": "minTokenAmount",
          "type": "uint256"
        },
        {
          "internalType": "uint256",
          "name": "minKoraAmount",
          "type": "uint256"
        },
        {
          "internalType": "address",
          "name": "to",
          "type": "address"
        },
        {
          "internalType": "uint256",
          "name": "deadline",
          "type": "uint256"
        }
      ],
      "name": "safeAddLiquidity",
      "outputs": [
        {
          "internalType": "uint256",
          "name": "koraUsed",
          "type": "uint256"
        },
        {
          "internalType": "uint256",
          "name": "tokenUsed",
          "type": "uint256"
        },
        {
          "internalType": "uint256",
          "name": "liquidity",
          "type": "uint256"
        }
      ],
      "stateMutability": "nonpayable",
      "type": "function"
    },
    {
      "inputs": [
        {
          "internalType": "address",
          "name": "participant",
          "type": "address"
        },
        {
          "internalType": "bool",
          "name": "free",
          "type": "bool"
        }
      ],
      "name": "setFreeParticipant",
      "outputs": [],
      "stateMutability": "nonpayable",
      "type": "function"
    },
    {
      "inputs": [
        {
          "internalType": "address",
          "name": "_dev",
          "type": "address"
        },
        {
          "internalType": "uint16",
          "name": "_poolRate",
          "type": "uint16"
        },
        {
          "internalType": "uint16",
          "name": "_burnRate",
          "type": "uint16"
        },
        {
          "internalType": "uint16",
          "name": "_devRate",
          "type": "uint16"
        }
      ],
      "name": "setParameters",
      "outputs": [],
      "stateMutability": "nonpayable",
      "type": "function"
    },
    {
      "inputs": [
        {
          "internalType": "bool",
          "name": "_unrestricted",
          "type": "bool"
        }
      ],
      "name": "setUnrestricted",
      "outputs": [],
      "stateMutability": "nonpayable",
      "type": "function"
    },
    {
      "inputs": [
        {
          "internalType": "address",
          "name": "unrestrictedController",
          "type": "address"
        },
        {
          "internalType": "bool",
          "name": "allow",
          "type": "bool"
        }
      ],
      "name": "setUnrestrictedController",
      "outputs": [],
      "stateMutability": "nonpayable",
      "type": "function"
    },
    {
      "inputs": [
        {
          "internalType": "address",
          "name": "a",
          "type": "address"
        }
      ],
      "name": "throwAddressState",
      "outputs": [],
      "stateMutability": "view",
      "type": "function"
    },
    {
      "inputs": [
        {
          "internalType": "address",
          "name": "newOwner",
          "type": "address"
        }
      ],
      "name": "transferOwnership",
      "outputs": [],
      "stateMutability": "nonpayable",
      "type": "function"
    },
    {
      "inputs": [],
      "name": "unrestricted",
      "outputs": [
        {
          "internalType": "bool",
          "name": "",
          "type": "bool"
        }
      ],
      "stateMutability": "view",
      "type": "function"
    },
    {
      "inputs": [
        {
          "internalType": "address",
          "name": "",
          "type": "address"
        }
      ],
      "name": "unrestrictedControllers",
      "outputs": [
        {
          "internalType": "bool",
          "name": "",
          "type": "bool"
        }
      ],
      "stateMutability": "view",
      "type": "function"
    }
  ],
  "bytecode": "0x60e0604052336000806101000a81548173ffffffffffffffffffffffffffffffffffffffff021916908373ffffffffffffffffffffffffffffffffffffffff1602179055503480156200005157600080fd5b5060405162004a5038038062004a50833981810160405281019062000077919062000216565b8173ffffffffffffffffffffffffffffffffffffffff1660c08173ffffffffffffffffffffffffffffffffffffffff1660601b815250508073ffffffffffffffffffffffffffffffffffffffff1660808173ffffffffffffffffffffffffffffffffffffffff1660601b815250508073ffffffffffffffffffffffffffffffffffffffff1663c45a01556040518163ffffffff1660e01b815260040160206040518083038186803b1580156200012c57600080fd5b505afa15801562000141573d6000803e3d6000fd5b505050506040513d601f19601f82011682018060405250810190620001679190620001ea565b73ffffffffffffffffffffffffffffffffffffffff1660a08173ffffffffffffffffffffffffffffffffffffffff1660601b81525050505062000301565b600081519050620001b681620002b3565b92915050565b600081519050620001cd81620002cd565b92915050565b600081519050620001e481620002e7565b92915050565b600060208284031215620001fd57600080fd5b60006200020d84828501620001a5565b91505092915050565b600080604083850312156200022a57600080fd5b60006200023a85828601620001d3565b92505060206200024d85828601620001bc565b9150509250929050565b6000620002648262000293565b9050919050565b6000620002788262000257565b9050919050565b60006200028c8262000257565b9050919050565b600073ffffffffffffffffffffffffffffffffffffffff82169050919050565b620002be8162000257565b8114620002ca57600080fd5b50565b620002d8816200026b565b8114620002e457600080fd5b50565b620002f2816200027f565b8114620002fe57600080fd5b50565b60805160601c60a05160601c60c05160601c6146d862000378600039806103e2528061062552806106d5528061082a5280610a355280610f62528061106452806125d552806127455250806103a65280610f26528061102852806124a052508061071152806107a652806107ee52506146d86000f3fe608060405234801561001057600080fd5b506004361061010b5760003560e01c80638327eb87116100a25780639c8c247c116100715780639c8c247c146102ac578063c40ad37c146102c8578063d8304ae2146102e4578063f2fde38b14610300578063f77a4ba01461031c5761010b565b80638327eb8714610220578063890357301461023c5780638da5cb5b1461025d57806395c47d061461027b5761010b565b806345d63cd3116100de57806345d63cd3146101ae5780634e71e0c8146101ca57806370b362b5146101d45780637da6b496146101f05761010b565b80630bfe89341461011057806326278f8614610140578063329e882c1461015e5780633d4dc13714610190575b600080fd5b61012a60048036038101906101259190613c59565b61034c565b6040516101379190614142565b60405180910390f35b61014861038b565b6040516101559190614127565b60405180910390f35b61017860048036038101906101739190613bbb565b61039e565b60405161018793929190614268565b60405180910390f35b610198610be0565b6040516101a5919061421d565b60405180910390f35b6101c860048036038101906101c39190613aa1565b610bed565b005b6101d2610d09565b005b6101ee60048036038101906101e99190613b92565b610e61565b005b61020a600480360381019061020591906139ec565b611268565b6040516102179190614127565b60405180910390f35b61023a60048036038101906102359190613b40565b611288565b005b6102446112fb565b60405161025494939291906140b9565b60405180910390f35b610265611363565b6040516102729190613f97565b60405180910390f35b61029560048036038101906102909190613a3e565b611387565b6040516102a3929190614238565b60405180910390f35b6102c660048036038101906102c19190613aa1565b612023565b005b6102e260048036038101906102dd9190613add565b61213f565b005b6102fe60048036038101906102f991906139ec565b6123bc565b005b61031a600480360381019061031591906139ec565b612836565b005b610336600480360381019061033191906139ec565b61293b565b6040516103439190614127565b60405180910390f35b6004818154811061035c57600080fd5b906000526020600020016000915054906101000a900473ffffffffffffffffffffffffffffffffffffffff1681565b600560009054906101000a900460ff1681565b6000806000807f000000000000000000000000000000000000000000000000000000000000000073ffffffffffffffffffffffffffffffffffffffff1663e6a439057f00000000000000000000000000000000000000000000000000000000000000008d6040518363ffffffff1660e01b815260040161041f929190614012565b60206040518083038186803b15801561043757600080fd5b505afa15801561044b573d6000803e3d6000fd5b505050506040513d601f19601f8201168201806040525081019061046f9190613a15565b9050600073ffffffffffffffffffffffffffffffffffffffff168173ffffffffffffffffffffffffffffffffffffffff161415801561050f57506003808111156104b557fe5b600360008373ffffffffffffffffffffffffffffffffffffffff1673ffffffffffffffffffffffffffffffffffffffff16815260200190815260200160002060009054906101000a900460ff16600381111561050d57fe5b145b61054e576040517f08c379a00000000000000000000000000000000000000000000000000000000081526004016105459061415d565b60405180910390fd5b6001600560006101000a81548160ff02191690831515021790555060008b73ffffffffffffffffffffffffffffffffffffffff166370a08231306040518263ffffffff1660e01b81526004016105a49190613f97565b60206040518083038186803b1580156105bc57600080fd5b505afa1580156105d0573d6000803e3d6000fd5b505050506040513d601f19601f820116820180604052508101906105f49190613c82565b905061062333308d8f73ffffffffffffffffffffffffffffffffffffffff1661295b909392919063ffffffff16565b7f000000000000000000000000000000000000000000000000000000000000000073ffffffffffffffffffffffffffffffffffffffff166323b872dd33308d6040518463ffffffff1660e01b815260040161068093929190613fb2565b602060405180830381600087803b15801561069a57600080fd5b505af11580156106ae573d6000803e3d6000fd5b505050506040513d601f19601f820116820180604052508101906106d29190613b69565b507f000000000000000000000000000000000000000000000000000000000000000073ffffffffffffffffffffffffffffffffffffffff1663095ea7b37f00000000000000000000000000000000000000000000000000000000000000008c6040518363ffffffff1660e01b815260040161074e9291906140fe565b602060405180830381600087803b15801561076857600080fd5b505af115801561077c573d6000803e3d6000fd5b505050506040513d601f19601f820116820180604052508101906107a09190613b69565b506107ec7f00000000000000000000000000000000000000000000000000000000000000008c8e73ffffffffffffffffffffffffffffffffffffffff16612a1c9092919063ffffffff16565b7f000000000000000000000000000000000000000000000000000000000000000073ffffffffffffffffffffffffffffffffffffffff1663e8e337007f00000000000000000000000000000000000000000000000000000000000000008e8d8f8d8f8e8e6040518963ffffffff1660e01b815260040161087398979695949392919061403b565b606060405180830381600087803b15801561088d57600080fd5b505af11580156108a1573d6000803e3d6000fd5b505050506040513d601f19601f820116820180604052508101906108c59190613cab565b8095508196508297505050508173ffffffffffffffffffffffffffffffffffffffff166318160ddd6040518163ffffffff1660e01b815260040160206040518083038186803b15801561091757600080fd5b505afa15801561092b573d6000803e3d6000fd5b505050506040513d601f19601f8201168201806040525081019061094f9190613c82565b600860008473ffffffffffffffffffffffffffffffffffffffff1673ffffffffffffffffffffffffffffffffffffffff168152602001908152602001600020819055508173ffffffffffffffffffffffffffffffffffffffff16600960009054906101000a900473ffffffffffffffffffffffffffffffffffffffff1673ffffffffffffffffffffffffffffffffffffffff161415610a2b576000600960006101000a81548173ffffffffffffffffffffffffffffffffffffffff021916908373ffffffffffffffffffffffffffffffffffffffff1602179055505b89851015610ae4577f000000000000000000000000000000000000000000000000000000000000000073ffffffffffffffffffffffffffffffffffffffff1663a9059cbb33878d036040518363ffffffff1660e01b8152600401610a90929190613fe9565b602060405180830381600087803b158015610aaa57600080fd5b505af1158015610abe573d6000803e3d6000fd5b505050506040513d601f19601f82011682018060405250810190610ae29190613b69565b505b610b7f818d73ffffffffffffffffffffffffffffffffffffffff166370a08231306040518263ffffffff1660e01b8152600401610b219190613f97565b60206040518083038186803b158015610b3957600080fd5b505afa158015610b4d573d6000803e3d6000fd5b505050506040513d601f19601f82011682018060405250810190610b719190613c82565b612abe90919063ffffffff16565b90506000811115610bb657610bb533828e73ffffffffffffffffffffffffffffffffffffffff16612b089092919063ffffffff16565b5b6000600560006101000a81548160ff02191690831515021790555050509750975097945050505050565b6000600480549050905090565b60008054906101000a900473ffffffffffffffffffffffffffffffffffffffff1673ffffffffffffffffffffffffffffffffffffffff163373ffffffffffffffffffffffffffffffffffffffff1614610cae576040517f08c379a000000000000000000000000000000000000000000000000000000000815260040180806020018281038252600a8152602001807f4f776e6572206f6e6c790000000000000000000000000000000000000000000081525060200191505060405180910390fd5b80600660008473ffffffffffffffffffffffffffffffffffffffff1673ffffffffffffffffffffffffffffffffffffffff16815260200190815260200160002060006101000a81548160ff0219169083151502179055505050565b3373ffffffffffffffffffffffffffffffffffffffff16600160009054906101000a900473ffffffffffffffffffffffffffffffffffffffff1673ffffffffffffffffffffffffffffffffffffffff1614610d6357600080fd5b6000600160006101000a81548173ffffffffffffffffffffffffffffffffffffffff021916908373ffffffffffffffffffffffffffffffffffffffff1602179055503373ffffffffffffffffffffffffffffffffffffffff1660008054906101000a900473ffffffffffffffffffffffffffffffffffffffff1673ffffffffffffffffffffffffffffffffffffffff167f8be0079c531659141344cd1fd0a4f28419497f9722a3daafe3b4186f6b6457e060405160405180910390a3336000806101000a81548173ffffffffffffffffffffffffffffffffffffffff021916908373ffffffffffffffffffffffffffffffffffffffff160217905550565b60008054906101000a900473ffffffffffffffffffffffffffffffffffffffff1673ffffffffffffffffffffffffffffffffffffffff163373ffffffffffffffffffffffffffffffffffffffff1614610f22576040517f08c379a000000000000000000000000000000000000000000000000000000000815260040180806020018281038252600a8152602001807f4f776e6572206f6e6c790000000000000000000000000000000000000000000081525060200191505060405180910390fd5b60007f000000000000000000000000000000000000000000000000000000000000000073ffffffffffffffffffffffffffffffffffffffff1663e6a439057f0000000000000000000000000000000000000000000000000000000000000000846040518363ffffffff1660e01b8152600401610f9f929190614012565b60206040518083038186803b158015610fb757600080fd5b505afa158015610fcb573d6000803e3d6000fd5b505050506040513d601f19601f82011682018060405250810190610fef9190613a15565b9050600073ffffffffffffffffffffffffffffffffffffffff168173ffffffffffffffffffffffffffffffffffffffff1614156110f6577f000000000000000000000000000000000000000000000000000000000000000073ffffffffffffffffffffffffffffffffffffffff1663c9c653967f0000000000000000000000000000000000000000000000000000000000000000846040518363ffffffff1660e01b81526004016110a1929190614012565b602060405180830381600087803b1580156110bb57600080fd5b505af11580156110cf573d6000803e3d6000fd5b505050506040513d601f19601f820116820180604052508101906110f39190613a15565b90505b6000600360008373ffffffffffffffffffffffffffffffffffffffff1673ffffffffffffffffffffffffffffffffffffffff16815260200190815260200160002060009054906101000a900460ff16905060038081111561115357fe5b81600381111561115f57fe5b14156111a0576040517f08c379a00000000000000000000000000000000000000000000000000000000081526004016111979061417d565b60405180910390fd5b60038060008473ffffffffffffffffffffffffffffffffffffffff1673ffffffffffffffffffffffffffffffffffffffff16815260200190815260200160002060006101000a81548160ff021916908360038111156111fb57fe5b02179055506004839080600181540180825580915050600190039060005260206000200160009091909190916101000a81548173ffffffffffffffffffffffffffffffffffffffff021916908373ffffffffffffffffffffffffffffffffffffffff160217905550505050565b60066020528060005260406000206000915054906101000a900460ff1681565b600660003373ffffffffffffffffffffffffffffffffffffffff1673ffffffffffffffffffffffffffffffffffffffff16815260200190815260200160002060009054906101000a900460ff166112de57600080fd5b80600560006101000a81548160ff02191690831515021790555050565b60028060000160009054906101000a900473ffffffffffffffffffffffffffffffffffffffff16908060000160149054906101000a900461ffff16908060000160169054906101000a900461ffff16908060000160189054906101000a900461ffff16905084565b60008054906101000a900473ffffffffffffffffffffffffffffffffffffffff1681565b600060606000600960009054906101000a900473ffffffffffffffffffffffffffffffffffffffff169050600073ffffffffffffffffffffffffffffffffffffffff168173ffffffffffffffffffffffffffffffffffffffff16146115ca576000600960006101000a81548173ffffffffffffffffffffffffffffffffffffffff021916908373ffffffffffffffffffffffffffffffffffffffff16021790555061150860405180606001604052806034815260200161455e6034913982600860008573ffffffffffffffffffffffffffffffffffffffff1673ffffffffffffffffffffffffffffffffffffffff168152602001908152602001600020548473ffffffffffffffffffffffffffffffffffffffff166318160ddd6040518163ffffffff1660e01b815260040160206040518083038186803b1580156114cb57600080fd5b505afa1580156114df573d6000803e3d6000fd5b505050506040513d601f19601f820116820180604052508101906115039190613c82565b612baa565b8073ffffffffffffffffffffffffffffffffffffffff166318160ddd6040518163ffffffff1660e01b815260040160206040518083038186803b15801561154e57600080fd5b505afa158015611562573d6000803e3d6000fd5b505050506040513d601f19601f820116820180604052508101906115869190613c82565b600860008373ffffffffffffffffffffffffffffffffffffffff1673ffffffffffffffffffffffffffffffffffffffff168152602001908152602001600020819055505b6000600360008873ffffffffffffffffffffffffffffffffffffffff1673ffffffffffffffffffffffffffffffffffffffff16815260200190815260200160002060009054906101000a900460ff1690506000600360008873ffffffffffffffffffffffffffffffffffffffff1673ffffffffffffffffffffffffffffffffffffffff16815260200190815260200160002060009054906101000a900460ff16905060038081111561167857fe5b82600381111561168457fe5b141580156116a8575060038081111561169957fe5b8160038111156116a557fe5b14155b1561179857600060038111156116ba57fe5b8260038111156116c657fe5b14156116d8576116d588612cd9565b91505b600060038111156116e557fe5b8160038111156116f157fe5b14156117035761170087612cd9565b90505b600560009054906101000a900460ff168061175857506002600381111561172657fe5b82600381111561173257fe5b1415801561175757506002600381111561174857fe5b81600381111561175457fe5b14155b5b611797576040517f08c379a000000000000000000000000000000000000000000000000000000000815260040161178e9061415d565b60405180910390fd5b5b6003808111156117a457fe5b8160038111156117b057fe5b141561181a5786600960006101000a81548173ffffffffffffffffffffffffffffffffffffffff021916908373ffffffffffffffffffffffffffffffffffffffff1602179055506118196040518060600160405280602b81526020016145c7602b913988612e87565b5b60038081111561182657fe5b82600381111561183257fe5b1415611b0c576119356040518060400160405280601981526020017f5b66726f6d2025735d20537570706c79202573202d3e2025730000000000000081525089600860008c73ffffffffffffffffffffffffffffffffffffffff1673ffffffffffffffffffffffffffffffffffffffff168152602001908152602001600020548b73ffffffffffffffffffffffffffffffffffffffff166318160ddd6040518163ffffffff1660e01b815260040160206040518083038186803b1580156118f857600080fd5b505afa15801561190c573d6000803e3d6000fd5b505050506040513d601f19601f820116820180604052508101906119309190613c82565b612baa565b600560009054906101000a900460ff1615611a0c578773ffffffffffffffffffffffffffffffffffffffff166318160ddd6040518163ffffffff1660e01b815260040160206040518083038186803b15801561199057600080fd5b505afa1580156119a4573d6000803e3d6000fd5b505050506040513d601f19601f820116820180604052508101906119c89190613c82565b600860008a73ffffffffffffffffffffffffffffffffffffffff1673ffffffffffffffffffffffffffffffffffffffff168152602001908152602001600020819055505b600860008973ffffffffffffffffffffffffffffffffffffffff1673ffffffffffffffffffffffffffffffffffffffff168152602001908152602001600020548873ffffffffffffffffffffffffffffffffffffffff166318160ddd6040518163ffffffff1660e01b815260040160206040518083038186803b158015611a9257600080fd5b505afa158015611aa6573d6000803e3d6000fd5b505050506040513d601f19601f82011682018060405250810190611aca9190613c82565b1015611b0b576040517f08c379a0000000000000000000000000000000000000000000000000000000008152600401611b02906141dd565b60405180910390fd5b5b600560009054906101000a900460ff1680611b705750600760008973ffffffffffffffffffffffffffffffffffffffff1673ffffffffffffffffffffffffffffffffffffffff16815260200190815260200160002060009054906101000a900460ff165b80611bc45750600760008873ffffffffffffffffffffffffffffffffffffffff1673ffffffffffffffffffffffffffffffffffffffff16815260200190815260200160002060009054906101000a900460ff165b15611c4c57611bec6040518060600160405280602381526020016145f2602391398989612fa4565b60008067ffffffffffffffff81118015611c0557600080fd5b50604051908082528060200260200182016040528015611c3f57816020015b611c2c6138ca565b815260200190600190039081611c245790505b509450945050505061201a565b611c8d6040518060400160405280601e81526020017f5472616e7366657272696e672066726f6d20257320746f2025733a20257300008152508989896130e0565b611c956138fa565b60026040518060800160405290816000820160009054906101000a900473ffffffffffffffffffffffffffffffffffffffff1673ffffffffffffffffffffffffffffffffffffffff1673ffffffffffffffffffffffffffffffffffffffff1681526020016000820160149054906101000a900461ffff1661ffff1661ffff1681526020016000820160169054906101000a900461ffff1661ffff1661ffff1681526020016000820160189054906101000a900461ffff1661ffff1661ffff16815250509050612710816040015161ffff16880281611d6f57fe5b049550611db16040518060400160405280600a81526020017f4275726e696e672025730000000000000000000000000000000000000000000081525087613225565b6000816020015161ffff1611611dc8576000611dcb565b60015b6000826060015161ffff1611611de2576000611de5565b60015b0160ff1667ffffffffffffffff81118015611dff57600080fd5b50604051908082528060200260200182016040528015611e3957816020015b611e266138ca565b815260200190600190039081611e1e5790505b509450600080826020015161ffff161115611f2b5730868281518110611e5b57fe5b60200260200101516000019073ffffffffffffffffffffffffffffffffffffffff16908173ffffffffffffffffffffffffffffffffffffffff1681525050612710826020015161ffff16890281611eae57fe5b04868280600101935081518110611ec157fe5b60200260200101516020018181525050611f2a6040518060400160405280600c81526020017f506f6f6c20676574732025730000000000000000000000000000000000000000815250876001840381518110611f1957fe5b602002602001015160200151613225565b5b6000826060015161ffff161115612014578160000151868281518110611f4d57fe5b60200260200101516000019073ffffffffffffffffffffffffffffffffffffffff16908173ffffffffffffffffffffffffffffffffffffffff1681525050612710826060015161ffff16890281611fa057fe5b04868281518110611fad57fe5b602002602001015160200181815250506120136040518060400160405280600b81526020017f446576206765747320257300000000000000000000000000000000000000000081525087838151811061200257fe5b602002602001015160200151613225565b5b50505050505b94509492505050565b60008054906101000a900473ffffffffffffffffffffffffffffffffffffffff1673ffffffffffffffffffffffffffffffffffffffff163373ffffffffffffffffffffffffffffffffffffffff16146120e4576040517f08c379a000000000000000000000000000000000000000000000000000000000815260040180806020018281038252600a8152602001807f4f776e6572206f6e6c790000000000000000000000000000000000000000000081525060200191505060405180910390fd5b80600760008473ffffffffffffffffffffffffffffffffffffffff1673ffffffffffffffffffffffffffffffffffffffff16815260200190815260200160002060006101000a81548160ff0219169083151502179055505050565b60008054906101000a900473ffffffffffffffffffffffffffffffffffffffff1673ffffffffffffffffffffffffffffffffffffffff163373ffffffffffffffffffffffffffffffffffffffff1614612200576040517f08c379a000000000000000000000000000000000000000000000000000000000815260040180806020018281038252600a8152602001807f4f776e6572206f6e6c790000000000000000000000000000000000000000000081525060200191505060405180910390fd5b6127108361ffff161115801561221c57506127108261ffff1611155b801561222e57506127108161ffff1611155b80156122445750612710818385010161ffff1611155b612283576040517f08c379a000000000000000000000000000000000000000000000000000000000815260040161227a906141fd565b60405180910390fd5b61228b6138fa565b84816000019073ffffffffffffffffffffffffffffffffffffffff16908173ffffffffffffffffffffffffffffffffffffffff168152505083816020019061ffff16908161ffff168152505082816040019061ffff16908161ffff168152505081816060019061ffff16908161ffff168152505080600260008201518160000160006101000a81548173ffffffffffffffffffffffffffffffffffffffff021916908373ffffffffffffffffffffffffffffffffffffffff16021790555060208201518160000160146101000a81548161ffff021916908361ffff16021790555060408201518160000160166101000a81548161ffff021916908361ffff16021790555060608201518160000160186101000a81548161ffff021916908361ffff1602179055509050505050505050565b8073ffffffffffffffffffffffffffffffffffffffff1663c45a01556040518163ffffffff1660e01b815260040160206040518083038186803b15801561240257600080fd5b505afa92505050801561243357506040513d601f19601f820116820180604052508101906124309190613a15565b60015b61247b576124766040518060400160405280601a81526020017f4164647265737320257320666163746f7279282920746872657700000000000081525082612e87565b6127fb565b61249e6040518060600160405280602281526020016144f3602291398383612fa4565b7f000000000000000000000000000000000000000000000000000000000000000073ffffffffffffffffffffffffffffffffffffffff168173ffffffffffffffffffffffffffffffffffffffff1614156127f9576125146040518060600160405280602f8152602001614615602f913983612e87565b8173ffffffffffffffffffffffffffffffffffffffff16630dfe16816040518163ffffffff1660e01b815260040160206040518083038186803b15801561255a57600080fd5b505afa92505050801561258b57506040513d601f19601f820116820180604052508101906125889190613a15565b60015b6125d3576125ce6040518060400160405280601981526020017f4164647265737320257320746f6b656e3028292074687265770000000000000081525083612e87565b6127f8565b7f000000000000000000000000000000000000000000000000000000000000000073ffffffffffffffffffffffffffffffffffffffff168173ffffffffffffffffffffffffffffffffffffffff161415612684576126496040518060600160405280603581526020016145926035913984612e87565b6040517f08c379a000000000000000000000000000000000000000000000000000000000815260040161267b906141bd565b60405180910390fd5b8273ffffffffffffffffffffffffffffffffffffffff1663d21220a76040518163ffffffff1660e01b815260040160206040518083038186803b1580156126ca57600080fd5b505afa9250505080156126fb57506040513d601f19601f820116820180604052508101906126f89190613a15565b60015b6127435761273e6040518060400160405280601981526020017f4164647265737320257320746f6b656e3128292074687265770000000000000081525084612e87565b6127f6565b7f000000000000000000000000000000000000000000000000000000000000000073ffffffffffffffffffffffffffffffffffffffff168173ffffffffffffffffffffffffffffffffffffffff1614156127f4576127b960405180606001604052806035815260200161466e6035913985612e87565b6040517f08c379a00000000000000000000000000000000000000000000000000000000081526004016127eb906141bd565b60405180910390fd5b505b505b5b505b6040517f08c379a000000000000000000000000000000000000000000000000000000000815260040161282d9061419d565b60405180910390fd5b60008054906101000a900473ffffffffffffffffffffffffffffffffffffffff1673ffffffffffffffffffffffffffffffffffffffff163373ffffffffffffffffffffffffffffffffffffffff16146128f7576040517f08c379a000000000000000000000000000000000000000000000000000000000815260040180806020018281038252600a8152602001807f4f776e6572206f6e6c790000000000000000000000000000000000000000000081525060200191505060405180910390fd5b80600160006101000a81548173ffffffffffffffffffffffffffffffffffffffff021916908373ffffffffffffffffffffffffffffffffffffffff16021790555050565b60076020528060005260406000206000915054906101000a900460ff1681565b612a16846323b872dd60e01b858585604051602401808473ffffffffffffffffffffffffffffffffffffffff1681526020018373ffffffffffffffffffffffffffffffffffffffff1681526020018281526020019350505050604051602081830303815290604052907bffffffffffffffffffffffffffffffffffffffffffffffffffffffff19166020820180517bffffffffffffffffffffffffffffffffffffffffffffffffffffffff838183161783525050505061332c565b50505050565b612ab98363095ea7b360e01b8484604051602401808373ffffffffffffffffffffffffffffffffffffffff16815260200182815260200192505050604051602081830303815290604052907bffffffffffffffffffffffffffffffffffffffffffffffffffffffff19166020820180517bffffffffffffffffffffffffffffffffffffffffffffffffffffffff838183161783525050505061332c565b505050565b6000612b0083836040518060400160405280601e81526020017f536166654d6174683a207375627472616374696f6e206f766572666c6f77000081525061341b565b905092915050565b612ba58363a9059cbb60e01b8484604051602401808373ffffffffffffffffffffffffffffffffffffffff16815260200182815260200192505050604051602081830303815290604052907bffffffffffffffffffffffffffffffffffffffffffffffffffffffff19166020820180517bffffffffffffffffffffffffffffffffffffffffffffffffffffffff838183161783525050505061332c565b505050565b612cd38484848460405160240180806020018573ffffffffffffffffffffffffffffffffffffffff168152602001848152602001838152602001828103825286818151815260200191508051906020019080838360005b83811015612c1c578082015181840152602081019050612c01565b50505050905090810190601f168015612c495780820380516001836020036101000a031916815260200191505b50955050505050506040516020818303038152906040527fdaa394bd000000000000000000000000000000000000000000000000000000007bffffffffffffffffffffffffffffffffffffffffffffffffffffffff19166020820180517bffffffffffffffffffffffffffffffffffffffffffffffffffffffff83818316178352505050506134db565b50505050565b600060019050612cfe8273ffffffffffffffffffffffffffffffffffffffff16613504565b15612dd7573073ffffffffffffffffffffffffffffffffffffffff1663d8304ae2836040518263ffffffff1660e01b8152600401612d3c9190613f97565b60006040518083038186803b158015612d5457600080fd5b505afa925050508015612d65575060015b612dcd57612d716143c9565b80612d7c5750612da5565b600181511415612d8f5760019150612d9f565b600281511415612d9e57600291505b5b50612dc8565b612dc76040518060600160405280602381526020016145156023913983612e87565b5b612dd6565b6000612dd557fe5b5b5b612e226040518060400160405280601e81526020017f416464726573732025732064657465637465642061732074797065202573000081525083836003811115612e1d57fe5b613517565b80600360008473ffffffffffffffffffffffffffffffffffffffff1673ffffffffffffffffffffffffffffffffffffffff16815260200190815260200160002060006101000a81548160ff02191690836003811115612e7d57fe5b0217905550919050565b612fa0828260405160240180806020018373ffffffffffffffffffffffffffffffffffffffff168152602001828103825284818151815260200191508051906020019080838360005b83811015612eeb578082015181840152602081019050612ed0565b50505050905090810190601f168015612f185780820380516001836020036101000a031916815260200191505b5093505050506040516020818303038152906040527f319af333000000000000000000000000000000000000000000000000000000007bffffffffffffffffffffffffffffffffffffffffffffffffffffffff19166020820180517bffffffffffffffffffffffffffffffffffffffffffffffffffffffff83818316178352505050506134db565b5050565b6130db83838360405160240180806020018473ffffffffffffffffffffffffffffffffffffffff1681526020018373ffffffffffffffffffffffffffffffffffffffff168152602001828103825285818151815260200191508051906020019080838360005b8381101561302557808201518184015260208101905061300a565b50505050905090810190601f1680156130525780820380516001836020036101000a031916815260200191505b509450505050506040516020818303038152906040527ffcec75e0000000000000000000000000000000000000000000000000000000007bffffffffffffffffffffffffffffffffffffffffffffffffffffffff19166020820180517bffffffffffffffffffffffffffffffffffffffffffffffffffffffff83818316178352505050506134db565b505050565b61321f8484848460405160240180806020018573ffffffffffffffffffffffffffffffffffffffff1681526020018473ffffffffffffffffffffffffffffffffffffffff168152602001838152602001828103825286818151815260200191508051906020019080838360005b8381101561316857808201518184015260208101905061314d565b50505050905090810190601f1680156131955780820380516001836020036101000a031916815260200191505b50955050505050506040516020818303038152906040527f6eb7943d000000000000000000000000000000000000000000000000000000007bffffffffffffffffffffffffffffffffffffffffffffffffffffffff19166020820180517bffffffffffffffffffffffffffffffffffffffffffffffffffffffff83818316178352505050506134db565b50505050565b61332882826040516024018080602001838152602001828103825284818151815260200191508051906020019080838360005b83811015613273578082015181840152602081019050613258565b50505050905090810190601f1680156132a05780820380516001836020036101000a031916815260200191505b5093505050506040516020818303038152906040527f9710a9d0000000000000000000000000000000000000000000000000000000007bffffffffffffffffffffffffffffffffffffffffffffffffffffffff19166020820180517bffffffffffffffffffffffffffffffffffffffffffffffffffffffff83818316178352505050506134db565b5050565b606061338e826040518060400160405280602081526020017f5361666545524332303a206c6f772d6c6576656c2063616c6c206661696c65648152508573ffffffffffffffffffffffffffffffffffffffff1661363d9092919063ffffffff16565b9050600081511115613416578080602001905160208110156133af57600080fd5b8101908080519060200190929190505050613415576040517f08c379a000000000000000000000000000000000000000000000000000000000815260040180806020018281038252602a815260200180614644602a913960400191505060405180910390fd5b5b505050565b60008383111582906134c8576040517f08c379a00000000000000000000000000000000000000000000000000000000081526004018080602001828103825283818151815260200191508051906020019080838360005b8381101561348d578082015181840152602081019050613472565b50505050905090810190601f1680156134ba5780820380516001836020036101000a031916815260200191505b509250505060405180910390fd5b5060008385039050809150509392505050565b60008151905060006a636f6e736f6c652e6c6f679050602083016000808483855afa5050505050565b600080823b905060008111915050919050565b61363883838360405160240180806020018473ffffffffffffffffffffffffffffffffffffffff168152602001838152602001828103825285818151815260200191508051906020019080838360005b83811015613582578082015181840152602081019050613567565b50505050905090810190601f1680156135af5780820380516001836020036101000a031916815260200191505b509450505050506040516020818303038152906040527f07c81217000000000000000000000000000000000000000000000000000000007bffffffffffffffffffffffffffffffffffffffffffffffffffffffff19166020820180517bffffffffffffffffffffffffffffffffffffffffffffffffffffffff83818316178352505050506134db565b505050565b606061364c8484600085613655565b90509392505050565b6060824710156136b0576040517f08c379a00000000000000000000000000000000000000000000000000000000081526004018080602001828103825260268152602001806145386026913960400191505060405180910390fd5b6136b985613504565b61372b576040517f08c379a000000000000000000000000000000000000000000000000000000000815260040180806020018281038252601d8152602001807f416464726573733a2063616c6c20746f206e6f6e2d636f6e747261637400000081525060200191505060405180910390fd5b600060608673ffffffffffffffffffffffffffffffffffffffff1685876040518082805190602001908083835b6020831061377b5780518252602082019150602081019050602083039250613758565b6001836020036101000a03801982511681845116808217855250505050505090500191505060006040518083038185875af1925050503d80600081146137dd576040519150601f19603f3d011682016040523d82523d6000602084013e6137e2565b606091505b50915091506137f28282866137fe565b92505050949350505050565b6060831561380e578290506138c3565b6000835111156138215782518084602001fd5b816040517f08c379a00000000000000000000000000000000000000000000000000000000081526004018080602001828103825283818151815260200191508051906020019080838360005b8381101561388857808201518184015260208101905061386d565b50505050905090810190601f1680156138b55780820380516001836020036101000a031916815260200191505b509250505060405180910390fd5b9392505050565b6040518060400160405280600073ffffffffffffffffffffffffffffffffffffffff168152602001600081525090565b6040518060800160405280600073ffffffffffffffffffffffffffffffffffffffff168152602001600061ffff168152602001600061ffff168152602001600061ffff1681525090565b6000813590506139538161447f565b92915050565b6000815190506139688161447f565b92915050565b60008135905061397d81614496565b92915050565b60008151905061399281614496565b92915050565b6000813590506139a7816144ad565b92915050565b6000813590506139bc816144c4565b92915050565b6000813590506139d1816144db565b92915050565b6000815190506139e6816144db565b92915050565b6000602082840312156139fe57600080fd5b6000613a0c84828501613944565b91505092915050565b600060208284031215613a2757600080fd5b6000613a3584828501613959565b91505092915050565b60008060008060808587031215613a5457600080fd5b6000613a6287828801613944565b9450506020613a7387828801613944565b9350506040613a8487828801613944565b9250506060613a95878288016139c2565b91505092959194509250565b60008060408385031215613ab457600080fd5b6000613ac285828601613944565b9250506020613ad38582860161396e565b9150509250929050565b60008060008060808587031215613af357600080fd5b6000613b0187828801613944565b9450506020613b12878288016139ad565b9350506040613b23878288016139ad565b9250506060613b34878288016139ad565b91505092959194509250565b600060208284031215613b5257600080fd5b6000613b608482850161396e565b91505092915050565b600060208284031215613b7b57600080fd5b6000613b8984828501613983565b91505092915050565b600060208284031215613ba457600080fd5b6000613bb284828501613998565b91505092915050565b600080600080600080600060e0888a031215613bd657600080fd5b6000613be48a828b01613998565b9750506020613bf58a828b016139c2565b9650506040613c068a828b016139c2565b9550506060613c178a828b016139c2565b9450506080613c288a828b016139c2565b93505060a0613c398a828b01613944565b92505060c0613c4a8a828b016139c2565b91505092959891949750929550565b600060208284031215613c6b57600080fd5b6000613c79848285016139c2565b91505092915050565b600060208284031215613c9457600080fd5b6000613ca2848285016139d7565b91505092915050565b600080600060608486031215613cc057600080fd5b6000613cce868287016139d7565b9350506020613cdf868287016139d7565b9250506040613cf0868287016139d7565b9150509250925092565b6000613d068383613f3b565b60408301905092915050565b613d1b81614351565b82525050565b613d2a816142e9565b82525050565b613d39816142e9565b82525050565b6000613d4a826142af565b613d5481856142c7565b9350613d5f8361429f565b8060005b83811015613d90578151613d778882613cfa565b9750613d82836142ba565b925050600181019050613d63565b5085935050505092915050565b613da6816142fb565b82525050565b613db581614363565b82525050565b6000613dc86011836142d8565b91507f506f6f6c206e6f7420617070726f7665640000000000000000000000000000006000830152602082019050919050565b6000613e08600f836142d8565b91507f416c726561647920616c6c6f77656400000000000000000000000000000000006000830152602082019050919050565b6000613e486001836142d8565b91507f31000000000000000000000000000000000000000000000000000000000000006000830152602082019050919050565b6000613e886002836142d8565b91507f32320000000000000000000000000000000000000000000000000000000000006000830152602082019050919050565b6000613ec86017836142d8565b91507f43616e6e6f742072656d6f7665206c69717569646974790000000000000000006000830152602082019050919050565b6000613f086006836142d8565b91507f3e203130302500000000000000000000000000000000000000000000000000006000830152602082019050919050565b604082016000820151613f516000850182613d21565b506020820151613f646020850182613f79565b50505050565b613f7381614319565b82525050565b613f8281614347565b82525050565b613f9181614347565b82525050565b6000602082019050613fac6000830184613d30565b92915050565b6000606082019050613fc76000830186613d12565b613fd46020830185613d30565b613fe16040830184613f88565b949350505050565b6000604082019050613ffe6000830185613d12565b61400b6020830184613f88565b9392505050565b60006040820190506140276000830185613d30565b6140346020830184613d30565b9392505050565b600061010082019050614051600083018b613d30565b61405e602083018a613d30565b61406b6040830189613f88565b6140786060830188613f88565b6140856080830187613f88565b61409260a0830186613f88565b61409f60c0830185613d30565b6140ac60e0830184613f88565b9998505050505050505050565b60006080820190506140ce6000830187613d30565b6140db6020830186613f6a565b6140e86040830185613f6a565b6140f56060830184613f6a565b95945050505050565b60006040820190506141136000830185613d30565b6141206020830184613f88565b9392505050565b600060208201905061413c6000830184613d9d565b92915050565b60006020820190506141576000830184613dac565b92915050565b6000602082019050818103600083015261417681613dbb565b9050919050565b6000602082019050818103600083015261419681613dfb565b9050919050565b600060208201905081810360008301526141b681613e3b565b9050919050565b600060208201905081810360008301526141d681613e7b565b9050919050565b600060208201905081810360008301526141f681613ebb565b9050919050565b6000602082019050818103600083015261421681613efb565b9050919050565b60006020820190506142326000830184613f88565b92915050565b600060408201905061424d6000830185613f88565b818103602083015261425f8184613d3f565b90509392505050565b600060608201905061427d6000830186613f88565b61428a6020830185613f88565b6142976040830184613f88565b949350505050565b6000819050602082019050919050565b600081519050919050565b6000602082019050919050565b600082825260208201905092915050565b600082825260208201905092915050565b60006142f482614327565b9050919050565b60008115159050919050565b6000614312826142e9565b9050919050565b600061ffff82169050919050565b600073ffffffffffffffffffffffffffffffffffffffff82169050919050565b6000819050919050565b600061435c82614387565b9050919050565b600061436e82614375565b9050919050565b600061438082614327565b9050919050565b600061439282614399565b9050919050565b60006143a482614327565b9050919050565b6000601f19601f8301169050919050565b60008160e01c9050919050565b600060443d10156143d95761447c565b60046000803e6143ea6000516143bc565b6308c379a081146143fb575061447c565b60405160043d036004823e80513d602482011167ffffffffffffffff821117156144275750505061447c565b808201805167ffffffffffffffff81111561444657505050505061447c565b8060208301013d85018111156144615750505050505061447c565b61446a826143ab565b60208401016040528296505050505050505b90565b614488816142e9565b811461449357600080fd5b50565b61449f816142fb565b81146144aa57600080fd5b50565b6144b681614307565b81146144c157600080fd5b50565b6144cd81614319565b81146144d857600080fd5b50565b6144e481614347565b81146144ef57600080fd5b5056fe4164647265737320257320646574656374656420666163746f72792829203d2025734164647265737320257320746872657720756e6b6e6f776e2065786563657074696f6e416464726573733a20696e73756666696369656e742062616c616e636520666f722063616c6c5570646174696e6720746f74616c537570706c7920666f722025732066726f6d206c6173742063616c6c3a202573202d3e2025734164647265737320257320646574656374656420746f6b656e302829203d3d206b6f7261202d20446973616c6c6f776564506f6f6c57696c6c2075706461746520746f74616c537570706c7920666f72202573206f6e206e6578742063616c6c556e72657374726963746564207472616e736665722066726f6d20257320746f2025734164647265737320257320646574656374656420666163746f72792829205b6d61746368656420756e69737761705d5361666545524332303a204552433230206f7065726174696f6e20646964206e6f7420737563636565644164647265737320257320646574656374656420746f6b656e312829203d3d206b6f7261202d20446973616c6c6f776564506f6f6ca264697066735822122011749f0cd3d2783e8a911661d3611511efd4d8ccc87a6eb1f10dc3c3f5f2fc5764736f6c63430007040033",
  "linkReferences": {},
  "deployedLinkReferences": {}
}